:020000040800F2
:10000000700600209D010008B7060008B50600082C
:1000100000000000000000000000000000000000E0
:10002000000000000000000000000000BB06000807
:100030000000000000000000B9060008BD0600082E
:10004000AF010008AF010008AF010008AF010008D0
:10005000AF010008AF010008AF010008AF010008C0
:10006000AF010008AF010008AF010008AF010008B0
:10007000AF010008AF010008AF010008AF010008A0
:10008000AF010008AF010008AF010008AF01000890
:10009000AF010008AF010008AF010008AF01000880
:1000A000AF010008AF010008AF010008AF01000870
:1000B000AF010008AF010008AF010008AF01000860
:1000C00000F002F800F03EF80CA030C80838241800
:1000D0002D18A246671EAB4654465D46AC4201D180
:1000E00000F030F87E460F3E0FCCB6460126334274
:1000F00000D0FB1AA246AB46334318474C0700001A
:100100006C070000103A02D378C878C1FAD85207B9
:1001100001D330C830C101D504680C6070470000BD
:100120000023002400250026103A01D378C1FBD813
:10013000520700D330C100D50B6070471FB51FBDFB
:1001400010B510BD00F0F6F81146FFF7F7FF00F00C
:1001500053FB00F00EF903B4FFF7F2FF03BC00F00D
:1001600015F9000070B505460C46164602E00FCCA6
:100170000FC5103E102EFAD2082E02D303CC03C5B1
:10018000083E042E07D301CC01C5361F03E02178B9
:100190002970641C6D1C761EF9D270BD074880471B
:1001A00007480047FEE7FEE7FEE7FEE7FEE7FEE75B
:1001B00004480549054A064B70470000C50600087B
:1001C000C1000008700000207006002070020020AE
:1001D00070020020002203098B422CD3030A8B42B9
:1001E00011D300239C464EE003460B433CD400222F
:1001F00043088B4231D303098B421CD3030A8B4241
:1002000001D394463FE0C3098B4201D3CB01C01A0E
:10021000524183098B4201D38B01C01A52414309D9
:100220008B4201D34B01C01A524103098B4201D3C7
:100230000B01C01A5241C3088B4201D3CB00C01A34
:10024000524183088B4201D38B00C01A52414308AC
:100250008B4201D34B00C01A5241411A00D20146D1
:100260005241104670475DE0CA0F00D0494203106A
:1002700000D34042534000229C4603098B422DD3B9
:10028000030A8B4212D3FC22890112BA030A8B4261
:100290000CD3890192118B4208D3890192118B42B0
:1002A00004D389013AD0921100E08909C3098B4235
:1002B00001D3CB01C01A524183098B4201D38B0178
:1002C000C01A524143098B4201D34B01C01A52411B
:1002D00003098B4201D30B01C01A5241C3088B4260
:1002E00001D3CB00C01A524183088B4201D38B004B
:1002F000C01A5241D9D243088B4201D34B00C01AD5
:100300005241411A00D20146634652415B101046E9
:1003100001D34042002B00D54942704763465B1031
:1003200000D3404201B50020C046C04602BD704720
:1003300070477047754600F025F8AE4605006946DF
:100340005346C008C000854618B020B5FFF730FFFF
:1003500060BC00274908B6460026C0C5C0C5C0C558
:10036000C0C5C0C5C0C5C0C5C0C5403D49008D465B
:10037000704710B50446C046C0462046FFF7EBFE66
:1003800010BD0000004870471000002001491820EF
:10039000ABBEFEE7260002007047000010B518480B
:1003A00090B04269012189040A43426142690A40CE
:1003B0000F92426949000A43426140691422084091
:1003C0000F9010496846FFF7CDFE0F4C6946204656
:1003D00000F01EF80B491422143105A8FFF7C2FEE5
:1003E00005A9204600F014F80649142228310AA86D
:1003F000FFF7B8FE0AA9054800F00AF810B010BDD2
:10040000001002400C0800080004004800080048E2
:10041000F8B5002303240125BFE02E469E40B446D4
:1004200032407CD00E79B607B60F012E01D0022ED5
:1004300017D186682746B6465E00B74000967646D6
:10044000BE43B646CF68009EB740764637438760C6
:1004500046686746BE430F79FF06FF0F9F4037434C
:1004600047600E79F643B6070ED0C6682746B446F5
:100470005E00B646B7406646BE43B4468F687646D1
:10048000B74066463743C7600E79B607B60F022EEF
:1004900014D1DE08B60036180096366A5F07B446F7
:1004A000FE0E0F27B646B7406646BE43B4460F69F8
:1004B0007646B74066463743009E37620668274651
:1004C000B4465E00B646B7406646BE430F79B446B2
:1004D000BF07BF0F7646B7406646374307604E6892
:1004E000B603B60F58D0304FBE692E43BE61BE6909
:1004F0009F08F607F60F2D4EBF00BE190096B6688E
:100500000F27B4469E07360FB646B7406646BE4331
:100510000927FF06B446B84202D1002715E03BE0A8
:10052000234FB84201D101270FE0224FB84201D139
:1005300002270AE0204FB84201D1032705E01F4FF0
:10054000B84201D1042700E005277646B740664649
:100550003743009EB7601A4EB6684F689643FF0255
:1005600000D51643164FBE60FE684F689643BF0223
:1005700000D51643124FFE607E684F689643BF0356
:1005800000D516430E4F7E603E684F689643FF03CA
:1005900000D516430A4A16605B1C0A681646DE4000
:1005A00000D03AE7F8BD0000001002400000014012
:1005B0000004004800080048000C004800100048F3
:1005C00000040140426913460B401B0491430B4356
:1005D000836170470248816802788918816070479A
:1005E0000000002010B50648016810221143016088
:1005F000032000F007F800F027F8002010BD0000ED
:100600000020024070B504460D4D7D202978C000C1
:10061000FFF7E0FD01460B480068FFF7DBFD00F047
:1006200031F8002809D1042C07D200222146401EAF
:1006300000F01EF800206C6070BD012070BD00004D
:10064000000000200C00002008B508488169012244
:1006500011438161816911400091C26901040A431B
:10066000C261C0690840009008BD0000001002404F
:1006700010B500F09FF810BD0148006870470000F9
:100680000C000020094910B5401E884201D9012004
:1006900010BD074C60610321081F00F08BF800209B
:1006A000A06107202061002010BD0000FFFFFF00B7
:1006B00000E000E0FEE7FEE77047704710B5FFF787
:1006C00089FF10BD7047000008B50D48C2690121BF
:1006D00089040A43C261C06908400090FFF7CCFF5B
:1006E000E1214902FFF776FD0649C86008680C223F
:1006F00010430860086801221043086008BD00002C
:10070000001002400048004000B587B000F030F80B
:100710000F4A622817D0672812D06F280DD0722890
:1007200009D01C220BA16846FFF71CFD684600F0AB
:1007300035F807B000BD402106E0FF21013103E09C
:100740000121490200E080211046FFF73BFFF0E75E
:1007500000080048496E76616C69642043686172E4
:10076000616374657220496E7075747465642100EC
:100770000448C1698906FCD5024820308088C0B28F
:1007800070470000004800400349CA691206FCD5C2
:1007900001492031088170470048004010B50446E7
:1007A000002302E0FFF7F0FF5B1CE05C0028F9D1BA
:1007B00010BD00008307FF22DB0E9A408907090E57
:1007C0009940002808DB830809489B001B1818681B
:1007D00090430843186070470007000F08388308EB
:1007E00004489B001B18D86990430843D8617047A0
:1007F00000E400E000ED00E0FFF7F4FEFFF7CEFDBF
:10080000FFF762FFFFF780FFFCE700000008000031
:1008100002000000000000000000000004000000D2
:1008200000040000020000000000000000000000C2
:1008300004000000C00300000100000000000000F0
:100840000000000000000000680800080000002010
:1008500010000000040100087808000810000020C3
:1008600060060000200100080100000004000000F4
:080870000000000000127A00F4
:04000005080000C12E
:00000001FF
