:020000040800F2
:10000000800600209D010008C3060008C106000804
:1000100000000000000000000000000000000000E0
:10002000000000000000000000000000C7060008FB
:100030000000000000000000C5060008C906000816
:10004000AF010008AF010008AF010008AF010008D0
:10005000AF010008AF010008AF010008AF010008C0
:10006000AF010008AF010008AF010008AF010008B0
:10007000AF010008AF010008AF010008AF010008A0
:10008000AF010008AF010008AF010008AF01000890
:10009000AF010008AF010008AF010008AF01000880
:1000A000AF010008AF010008AF010008AF01000870
:1000B000AF010008D5060008AF010008AF01000835
:1000C00000F002F800F03EF80CA030C80838241800
:1000D0002D18A246671EAB4654465D46AC4201D180
:1000E00000F030F87E460F3E0FCCB6460126334274
:1000F00000D0FB1AA246AB463343184770090000F4
:1001000090090000103A02D378C878C1FAD8520793
:1001100001D330C830C101D504680C6070470000BD
:100120000023002400250026103A01D378C1FBD813
:10013000520700D330C100D50B6070471FB51FBDFB
:1001400010B510BD00F0F6F81146FFF7F7FF00F00C
:1001500055FB00F00EF903B4FFF7F2FF03BC00F00B
:1001600015F9000070B505460C46164602E00FCCA6
:100170000FC5103E102EFAD2082E02D303CC03C5B1
:10018000083E042E07D301CC01C5361F03E02178B9
:100190002970641C6D1C761EF9D270BD074880471B
:1001A00007480047FEE7FEE7FEE7FEE7FEE7FEE75B
:1001B00004480549054A064B70470000D10600086F
:1001C000C10000088000002080060020800200207E
:1001D00080020020002203098B422CD3030A8B42A9
:1001E00011D300239C464EE003460B433CD400222F
:1001F00043088B4231D303098B421CD3030A8B4241
:1002000001D394463FE0C3098B4201D3CB01C01A0E
:10021000524183098B4201D38B01C01A52414309D9
:100220008B4201D34B01C01A524103098B4201D3C7
:100230000B01C01A5241C3088B4201D3CB00C01A34
:10024000524183088B4201D38B00C01A52414308AC
:100250008B4201D34B00C01A5241411A00D20146D1
:100260005241104670475DE0CA0F00D0494203106A
:1002700000D34042534000229C4603098B422DD3B9
:10028000030A8B4212D3FC22890112BA030A8B4261
:100290000CD3890192118B4208D3890192118B42B0
:1002A00004D389013AD0921100E08909C3098B4235
:1002B00001D3CB01C01A524183098B4201D38B0178
:1002C000C01A524143098B4201D34B01C01A52411B
:1002D00003098B4201D30B01C01A5241C3088B4260
:1002E00001D3CB00C01A524183088B4201D38B004B
:1002F000C01A5241D9D243088B4201D34B00C01AD5
:100300005241411A00D20146634652415B101046E9
:1003100001D34042002B00D54942704763465B1031
:1003200000D3404201B50020C046C04602BD704720
:1003300070477047754600F025F8AE4605006946DF
:100340005346C008C000854618B020B5FFF730FFFF
:1003500060BC00274908B6460026C0C5C0C5C0C558
:10036000C0C5C0C5C0C5C0C5C0C5403D49008D465B
:10037000704710B50446C046C0462046FFF7EBFE66
:1003800010BD0000004870471C00002001491820E3
:10039000ABBEFEE7260002007047000010B518480B
:1003A00090B04269012189040A43426142690A40CE
:1003B0000F92426949000A43426140691422084091
:1003C0000F9010496846FFF7CDFE0F4C6946204656
:1003D00000F01EF80B491422143105A8FFF7C2FEE5
:1003E00005A9204600F014F80649142228310AA86D
:1003F000FFF7B8FE0AA9054800F00AF810B010BDD2
:1004000000100240300A00080004004800080048BC
:10041000F8B5002303240125BFE02E469E40B446D4
:1004200032407CD00E79B607B60F012E01D0022ED5
:1004300017D186682746B6465E00B74000967646D6
:10044000BE43B646CF68009EB740764637438760C6
:1004500046686746BE430F79FF06FF0F9F4037434C
:1004600047600E79F643B6070ED0C6682746B446F5
:100470005E00B646B7406646BE43B4468F687646D1
:10048000B74066463743C7600E79B607B60F022EEF
:1004900014D1DE08B60036180096366A5F07B446F7
:1004A000FE0E0F27B646B7406646BE43B4460F69F8
:1004B0007646B74066463743009E37620668274651
:1004C000B4465E00B646B7406646BE430F79B446B2
:1004D000BF07BF0F7646B7406646374307604E6892
:1004E000B603B60F58D0304FBE692E43BE61BE6909
:1004F0009F08F607F60F2D4EBF00BE190096B6688E
:100500000F27B4469E07360FB646B7406646BE4331
:100510000927FF06B446B84202D1002715E03BE0A8
:10052000234FB84201D101270FE0224FB84201D139
:1005300002270AE0204FB84201D1032705E01F4FF0
:10054000B84201D1042700E005277646B740664649
:100550003743009EB7601A4EB6684F689643FF0255
:1005600000D51643164FBE60FE684F689643BF0223
:1005700000D51643124FFE607E684F689643BF0356
:1005800000D516430E4F7E603E684F689643FF03CA
:1005900000D516430A4A16605B1C0A681646DE4000
:1005A00000D03AE7F8BD0000001002400000014012
:1005B0000004004800080048000C004800100048F3
:1005C00000040140426913460B401B0491430B4356
:1005D00083617047002A01D0816170478162704752
:1005E0000248816802788918816070470C000020F9
:1005F00010B506480168102211430160032000F085
:1006000007F800F027F8002010BD0000002002408D
:1006100070B504460D4D7D202978C000FFF7DAFD46
:1006200001460B480068FFF7D5FD00F031F80028BF
:1006300009D1042C07D200222146401E00F01EF8EA
:1006400000206C6070BD012070BD00000C00002017
:100650001800002008B50848816901221143816112
:10066000816911400091C26901040A43C261C069F5
:100670000840009008BD00000010024010B500F0D6
:100680009BF810BD0148006870470000180000206A
:10069000094910B5401E884201D9012010BD074C00
:1006A00060610321081F00F087F80020A061072087
:1006B0002061002010BD0000FFFFFF0000E000E00F
:1006C000FEE7FEE77047704710B5FFF789FF10BDE2
:1006D0007047000000B5094988680A46002807D01D
:1006E00000F04EF85070012048600020886000BD86
:1006F00000F046F810708868401CF7E70000002002
:1007000008B51548C269012189040A43C261C0695C
:1007100008400090FFF7B6FFE1214902FFF75AFDBC
:100720000E49C86008680C2210430860086801225E
:1007300010430860086820221043086088040849B4
:10074000086008490868FF2212029043086006A06A
:1007500000F026F808BD00000010024000480040EC
:1007600000E100E01CE400E020496E707574205543
:1007700073657220436F6D6D616E643A20000000F6
:1007800001488088C0B27047204800400349CA69C8
:100790001206FCD50149203108817047004800400D
:1007A00010B50446002302E0FFF7F0FF5B1CE05C9D
:1007B0000028F9D110BD00008307FF22DB0E9A400C
:1007C0008907090E9940002808DB830809489B0027
:1007D0001B18186890430843186070470007000F03
:1007E0000838830804489B001B18D86990430843C5
:1007F000D861704700E400E000ED00E0FFF7F8FE8C
:10080000FFF7CCFDFFF77CFFFF26434C0136770056
:10081000254668680028FCD02078722806D06F280A
:1008200022D067283BD0622854D01BE06078302863
:1008300004D0312809D032280ED013E00022402104
:100840003648FFF7C7FE36A057E001224021334863
:10085000FFF7C0FE37A050E040213048FFF7B2FE5E
:1008600038A04AE03BA048E06078302809D0312821
:100870000ED03228F6D131462848FFF7A3FE39A022
:100880003BE0002231462548FFF7A4FE3AA034E0C1
:10089000012231462148FFF79DFE3CA02DE0607803
:1008A000302809D031280ED03228DBD139461B48F8
:1008B000FFF788FE3AA020E0002239461748FFF7EC
:1008C00089FE3CA019E0012239461448FFF782FE58
:1008D0003DA012E06078302809D0312815D03228A8
:1008E000C0D180210D48FFF76DFE3CA005E000223D
:1008F00080210A48FFF76EFE3DA0FFF751FF41A09F
:10090000FFF74EFF0020686083E701228021034843
:10091000FFF760FE41A0F0E700000020000800485B
:10092000524544204C45442044697361626C6564BF
:1009300000000000524544204C454420456E616251
:100940006C656400524544204C454420546F6767F1
:100950006C656400496E76616C696420696E7075BF
:10096000740000004F52414E4745204C45442054EE
:100970006F67676C656400004F52414E4745204CDD
:1009800045442044697361626C6564004F52414E76
:100990004745204C454420456E61626C656400000B
:1009A000475245454E204C454420546F67676C655F
:1009B00064000000475245454E204C4544204469A0
:1009C0007361626C65640000475245454E204C459A
:1009D0004420456E61626C6564000000424C5545E0
:1009E000204C454420546F67676C6564000000002C
:1009F000424C5545204C45442044697361626C6506
:100A00006400000020496E70757420557365722073
:100A1000436F6D6D616E643A20000000424C554595
:100A2000204C454420456E61626C65640000000006
:100A300000080000020000000000000000000000AC
:100A4000040000000004000002000000000000009C
:100A50000000000004000000C003000001000000CE
:100A60000000000000000000000000008C0A0008E8
:100A7000000000201C00000004010008A80A000873
:100A80001C00002064060000200100080000000097
:100A90000000000000000000010000000400000051
:080AA0000000000000127A00C2
:04000005080000C12E
:00000001FF
